:100000000C942A000C9400000C9400000C94000046
:100010000C9400000C9400000C9400000C94000060
:100020000C9400000C9400000C9400000C94000050
:100030000C9400000C9400000C9400000C94000040
:100040000C9400000C9400000C9400000C94000030
:100050000C940000F894EE27ECBBF1E0FBBFEBBF83
:10006000E5BF8DE0A2E0BB27ED938A95E9F780E03C
:1000700094E0A0E6ED930197E9F7EFE5EDBFE4E04A
:10008000EEBFC0E6D1E00C944500EFEFEABBE0E044
:10009000EBBBE7BBE8BBE4BBE5BBE1BBE2BBE3BF5B
:1000A000E2BFECBFEFBDEEBDEDBDECBDE7BDE6BD13
:1000B000EBBDEABDE9BDE8BDE2BDE5BDE4BDE3BD24
:1000C000E9BFE5BFE4BFEAB9E0E8E8B9E0E0E0BFD6
:1000D000E6B9EDB9E6BFD89A0DD0D99A0BD0DA9A25
:1000E00009D0DA9807D0D99805D0D89803D0DB9AF0
:1000F000F2CFFFCFA8ECB0E00C947E00109639F060
:10010000A89580ED97E00197F1F71197C9F7089549
:00000001FF
